:1000000041C05BC05AC059C058C057C0BBC155C0E1
:1000100054C053C052C051C050C04FC04EC04DC05C
:100020004CC070322D323030342C332D52552C349C
:100030002D530070322D323030342C70332D525508
:100040002C70342D534543002C4C43443136303210
:10005000002C4C43443230303400537464203578E3
:100060003800536563203578313000527573203580
:1000700078380030313233343536373839414243FD
:100080004445460011241FBECFE5D1E0DEBFCDBF01
:1000900010E0A0E6B0E0E6EDF4E002C005900D92BD
:1000A000A236B107D9F720E0A2E6B0E001C01D9268
:1000B000A637B207E1F785D10CC2A2CFD79A8DE05F
:1000C0008A95F1F70000D6988DE08A95F1F7000047
:1000D000D7988DE08A95F1F700000895D698DE98BC
:1000E000D798DF988DE08A95F1F70000CF9907C087
:1000F000D79A8DE08A95F1F70000D69ADFCF089560
:10010000882311F0D79801C0D79A88E08A95F1F733
:10011000D6988DE08A95F1F70000D69A80E0089590
:10012000D79888E08A95F1F7D6988DE08A95F1F70F
:10013000000089B3D69A881F8827881F0895CF9317
:10014000DF93D82FC8E08D2F8078DADFDD0FC15024
:10015000D1F7DF91CF91E4CFCF93DF93D82FCFEFBB
:10016000CF9905C08DE08A95F1F700000FC0D79AAE
:100170008DE08A95F1F70000D69A8DE08A95F1F727
:1001800000008D2FDCDF882329F098DFC15041F774
:1001900081E001C080E0DF91CF910895009731F0B8
:1001A00025E82A95F1F700000197F8CF089590917E
:1001B0006000892BC4CFCF93C82F8EE4CDDF882376
:1001C00029F081E080936400CF9108958C2FEFDFB8
:1001D0008C2F8460ECDF8C2FEADFCF916FCF81E032
:1001E00090E0DCDF80E00895CF93C82F81E090E0BD
:1001F000D5DF8C2F807F8160DEDF8C2F8295807F22
:100200008160CF91D8CFCF93C82F81E090E0C6DF37
:100210008C2F807FD0DF8C2F8295807FCCDF80E099
:10022000CF9108951F93CF93DF931F92CDB7DEB781
:10023000182F6983D4DF6981133010F094E101C075
:1002400090E0615081E0810F81708295880F880F66
:10025000807C680F690F862F80680F90DF91CF91A7
:100260001F91D1CFBCDF81E0CEDF88E290E096CF56
:10027000CF93C82F1092640031DFA89584EA91E0F3
:100280008DDFA89580E397DF80916400811128C0FD
:1002900082E590E083DFA89580E38DDF82E090E047
:1002A0007DDF80E388DF82E090E078DF80E283DF3B
:1002B00082E090E073DF80E27EDF8C2F8295807F8A
:1002C0007ADFD0DFA89586E09EDF811107C08CE041
:1002D0009ADF91E0811105C090E003C091E001C078
:1002E00092E0892FCF910895CF93DF93EC0189910C
:1002F000882311F079DFFBCFDF91CF910895CF9361
:10030000DF93FC018491EF012196882319F06CDFC3
:10031000FE01F8CFDF91CF910895E82FE295EF70BD
:10032000F0E0ED58FF4FE491E09365008F70E82F07
:10033000F0E0ED58FF4FE491E09366001092670003
:100340000895009761F02FEF30E742E021503040F0
:100350004040E1F700C00000A8950197F2CF089552
:10036000E199FECF9FBB8EBBE09A8DB30895E199D2
:10037000FECFF8941CBA9FBB8EBB6DBBE29AE19A8C
:100380007894089578941F920F920FB60F921124CB
:100390008F93809162008F5F80936200883059F460
:1003A0001092620080916300882329F0809163009D
:1003B0008150809363008F910F900FBE0F901F901C
:1003C000189580E886BD16BC80E285BF87E088BBB3
:1003D00088E181BD8EE481BD80E090E0C1DF8F3F88
:1003E00021F463E080E090E0C2DF89E09DE39BBD03
:1003F0008ABD82E08CB98BE08EBD7894B19905C03E
:100400008AE036DF8BE690E00BC0B29905C08CE045
:100410002FDF82E690E004C088E02ADF8AE590E0E2
:100420006EDFB09907C081E590E069DF44E0F42E0B
:1004300010E106C088E490E062DF32E0F32E1CE0B9
:10044000CEDE80ECE0DE103119F483E390E002C0F0
:1004500082E290E054DF85E080936300E12CC0E00D
:100460008895A895809163008111FACFFBDED1E0D9
:1004700061E08D2FD7DE8C2F50DF85E690E034DFF2
:100480008AE3B2DE80E2B0DE8C2F01E0CF5FACDE2B
:10049000CC2329F00F5F101720F08C2FF7CFEE241C
:1004A000E394DF5FFD1620F7EE2069F086B38270DB
:1004B000B19903C08895A895FBCF811104C083E052
:1004C00090E03FDFCDCF80E090E04ADF8093630093
:0604D000C7CFF894FFCF36
:0204D60008001C
:00000001FF
